:100000000C9434000C943E000C943E000C943E0082
:100010000C943E000C943E000C943E000C943E0068
:100020000C943E000C943E000C943E000C943E0058
:100030000C943E000C943E000C943E000C943E0048
:100040000C943E000C943E000C943E000C943E0038
:100050000C943E000C943E000C943E000C943E0028
:100060000C943E000C943E0011241FBECFEFD8E04C
:10007000DEBFCDBF0E9452000C946D000C940000B6
:1000800030E020E0281739070CF008954FEF53EDCA
:1000900060E3415050406040E1F700C000002F5F36
:1000A0003F4FF0CF88E384B92B9A85E090E00E941F
:1000B00040002B982C9A85E090E00E9440002C98FC
:1000C0002D9A85E090E00E9440002D982C9A85E0C2
:0E00D00090E00E9440002C98E7CFF894FFCFFC
:00000001FF
