:100000000C9434000C943E000C943E000C943E0082
:100010000C943E000C943E000C943E000C943E0068
:100020000C943E000C943E000C943E000C943E0058
:100030000C943E000C943E000C943E000C943E0048
:100040000C943E000C943E000C943E000C943E0038
:100050000C943E000C943E000C943E000C943E0028
:100060000C943E000C943E0011241FBECFEFD8E04C
:10007000DEBFCDBF0E9440000C946B000C940000CA
:10008000259A209A2D9A2FEF8DE399E421508040F4
:100090009040E1F700C00000289A2FEF8DE399E42B
:1000A000215080409040E1F700C000002D982FEFD4
:1000B0008DE399E4215080409040E1F700C00000BA
:1000C00028982FEF8DE399E4215080409040E1F78C
:0A00D00000C00000D7CFF894FFCF66
:00000001FF
