:100000000C9434000C943E000C943E000C943E0082
:100010000C943E000C943E000C943E000C943E0068
:100020000C943E000C943E000C943E000C943E0058
:100030000C943E000C943E000C943E000C943E0048
:100040000C943E000C943E000C943E000C943E0038
:100050000C943E000C943E000C943E000C943E0028
:100060000C943E000C943E0011241FBECFEFD8E04C
:10007000DEBFCDBF0E9440000C9454000C940000E1
:1000800087E084B988E385B91B9908C0289A1C9930
:1000900007C0299A1D9906C02A9AF6CF2898F7CF4B
:0C00A0002998F8CF2A98F0CFF894FFCFF1
:00000001FF
